:100000000C9434000C943E000C943E000C943E0082
:100010000C943E000C943E000C943E000C943E0068
:100020000C943E000C943E000C943E000C943E0058
:100030000C943E000C943E000C943E000C943E0048
:100040000C943E000C943E000C943E000C943E0038
:100050000C943E000C943E000C943E000C943E0028
:100060000C943E000C943E0011241FBECFEFD8E04C
:10007000DEBFCDBF0E9440000C9472000C940000C3
:100080001092C50087E68093C40088E18093C10088
:1000900086E08093C2008091C00087FFFCCF9091E2
:1000A000C6008091C00085FFFCCF9093C600F3CFBF
:1000B0009093C5008093C40088E18093C10086E0DE
:1000C0008093C20008958091C00087FFFCCF80918B
:1000D000C6000895982F8091C00085FFFCCF9093B3
:0800E000C6000895F894FFCF5B
:00000001FF
