:100000000C9434000C943E000C943E000C943E0082
:100010000C943E000C943E000C943E000C943E0068
:100020000C943E000C943E000C943E000C943E0058
:100030000C943E000C943E000C943E000C943E0048
:100040000C943E000C943E000C943E000C943E0038
:100050000C943E000C943E000C943E000C943E0028
:100060000C943E000C943E0011241FBECFEFD8E04C
:10007000DEBFCDBF0E9440000C9478000C940000BD
:100080001092C50087E68093C40088E18093C10088
:1000900086E08093C20092E38091C00087FFFCCF8E
:1000A0002091C6008091C00085FFFCCF2093C60040
:1000B0009F5F993489F780E090E008959093C500A0
:1000C0008093C40088E18093C10086E08093C200E1
:1000D00008958091C00087FFFCCF8091C6000895ED
:1000E000982F8091C00085FFFCCF9093C6000895A3
:0400F000F894FFCFB2
:00000001FF
