:100000000C9434000C943E000C943E000C943E0082
:100010000C943E000C943E000C943E000C943E0068
:100020000C943E000C943E000C943E000C943E0058
:100030000C943E000C943E000C943E000C943E0048
:100040000C943E000C943E000C943E000C943E0038
:100050000C943E000C943E000C943E000C943E0028
:100060000C943E000C943E0011241FBECFEFD8E04C
:10007000DEBFCDBF0E944B000C9459000C940000D1
:100080009093C5008093C40088E18093C1008EE006
:100090008093C20008951092C50087E68093C40043
:1000A00088E18093C1008EE08093C20080E090E000
:0600B0000895F894FFCF53
:00000001FF
