:020000020000FC
:0200000035C009
:0200040018954D
:02000800189549
:02000C00189545
:02001000189541
:0200140018953D
:02001800189539
:02001C00189535
:02002000189531
:0200240018952D
:02002800189529
:02002C001DC0F5
:02003000189521
:0200340018951D
:02003800189519
:02003C00189515
:02004000189511
:0200440018950D
:02004800189509
:02004C00189505
:02005000189501
:020054001895FD
:020058001895F9
:02005C001895F5
:10006800689418950FEF0DBF08E00EBF009181004E
:100078000D600093810000916F00026000936F0093
:1000880009E01DE310938900009388002227E89473
:100098007894FEF7E89423952A3008F02227022F57
:1000A8000E9458000C944D00EEEDF0E0003020F076
:1000B8000A3010F4000F01C004E11127E00FF11F0E
:1000C8001591049143B159B14C7F5370400F510FB2
:1000D80045B95BB90895FC0018006C013C01980112
:0C00E800B401F4011C00FC01BC0100008C
:00000001FF
