:020000020000FC
:0200000035C009
:0200040018954D
:02000800189549
:02000C00189545
:02001000189541
:0200140018953D
:02001800189539
:02001C00189535
:02002000189531
:0200240018952D
:02002800189529
:02002C00189525
:02003000189521
:0200340018951D
:02003800189519
:02003C00189515
:0200400013C0EB
:0200440018950D
:02004800189509
:02004C00189505
:02005000189501
:020054001895FD
:020058001895F9
:02005C001895F5
:10006800689418950FEF0DBF08E00EBF00916E0061
:10007800026000936E0005B5056005BD2227E8946F
:100088007894FEF7E89423952A3008F02227022F67
:100098000E9450000C944500EEECF0E0003020F097
:1000A8000A3010F4000F01C004E11127E00FF11F1E
:1000B8001591049143B159B14C7F5370400F510FC2
:1000C80045B95BB90895FC0018006C013C01980122
:0C00D800B401F4011C00FC01BC0100009C
:00000001FF
