:100000000C9434000C9449000C9449000C94490061
:100010000C9449000C9449000C9449000C9449003C
:100020000C9449000C9449000C9449000C9449002C
:100030000C9449000C9449000C9449000C9449001C
:100040000C9449000C9449000C9449000C9449000C
:100050000C9449000C9449000C9449000C944900FC
:100060000C9449000C94490011241FBECFEFD8E036
:10007000DEBFCDBF11E0A0E0B1E0E2E3F1E002C0FD
:1000800005900D92A031B107D9F70E9473000C942E
:1000900097000C9400009093C5008093C40088E101
:1000A0008093C10086E08093C2000895CF93DF93D0
:1000B000EC0160E08881882389F0A0ECB0E026ECB8
:1000C00030E08C9185FFFDCFFE01E60FF11D8081B0
:1000D000F90180836F5F8881882399F780E090E041
:1000E000DF91CF910895EF92FF920F931F93CF93DB
:1000F000DF9387E690E00E944B0020E137E20F2E6D
:10010000F0E9EF2EF1E0FF2EF02D00E011E0C0E16C
:10011000D7E205C0C7010197F1F721503040211502
:100120003105C1F7C8010E9456009E01F8CFF8942E
:02013000FFCFFF
:1001320048656C6C6F20576F726C64210D0A000069
:00000001FF
